{
  "_format": "hh-sol-artifact-1",
  "contractName": "Staking",
  "sourceName": "contracts/Staking.sol",
  "abi": [
    {
      "inputs": [
        {
          "internalType": "address",
          "name": "stakingToken",
          "type": "address"
        },
        {
          "internalType": "address",
          "name": "rewardToken",
          "type": "address"
        }
      ],
      "stateMutability": "nonpayable",
      "type": "constructor"
    },
    {
      "inputs": [],
      "name": "Staking__NeedMoreThanZero",
      "type": "error"
    },
    {
      "inputs": [],
      "name": "Staking__TransferFailed",
      "type": "error"
    },
    {
      "inputs": [],
      "name": "Staking__WithdrawlFailed",
      "type": "error"
    },
    {
      "inputs": [],
      "name": "REWARD_RATE",
      "outputs": [
        {
          "internalType": "uint256",
          "name": "",
          "type": "uint256"
        }
      ],
      "stateMutability": "view",
      "type": "function"
    },
    {
      "inputs": [],
      "name": "claimReward",
      "outputs": [],
      "stateMutability": "nonpayable",
      "type": "function"
    },
    {
      "inputs": [
        {
          "internalType": "address",
          "name": "account",
          "type": "address"
        }
      ],
      "name": "earned",
      "outputs": [
        {
          "internalType": "uint256",
          "name": "",
          "type": "uint256"
        }
      ],
      "stateMutability": "view",
      "type": "function"
    },
    {
      "inputs": [],
      "name": "rewardPerToken",
      "outputs": [
        {
          "internalType": "uint256",
          "name": "",
          "type": "uint256"
        }
      ],
      "stateMutability": "view",
      "type": "function"
    },
    {
      "inputs": [
        {
          "internalType": "address",
          "name": "",
          "type": "address"
        }
      ],
      "name": "s_balances",
      "outputs": [
        {
          "internalType": "uint256",
          "name": "",
          "type": "uint256"
        }
      ],
      "stateMutability": "view",
      "type": "function"
    },
    {
      "inputs": [],
      "name": "s_lastUpdatedTime",
      "outputs": [
        {
          "internalType": "uint256",
          "name": "",
          "type": "uint256"
        }
      ],
      "stateMutability": "view",
      "type": "function"
    },
    {
      "inputs": [],
      "name": "s_rewardPerTokenStored",
      "outputs": [
        {
          "internalType": "uint256",
          "name": "",
          "type": "uint256"
        }
      ],
      "stateMutability": "view",
      "type": "function"
    },
    {
      "inputs": [],
      "name": "s_rewardToken",
      "outputs": [
        {
          "internalType": "contract IERC20",
          "name": "",
          "type": "address"
        }
      ],
      "stateMutability": "view",
      "type": "function"
    },
    {
      "inputs": [
        {
          "internalType": "address",
          "name": "",
          "type": "address"
        }
      ],
      "name": "s_rewards",
      "outputs": [
        {
          "internalType": "uint256",
          "name": "",
          "type": "uint256"
        }
      ],
      "stateMutability": "view",
      "type": "function"
    },
    {
      "inputs": [],
      "name": "s_stakingToken",
      "outputs": [
        {
          "internalType": "contract IERC20",
          "name": "",
          "type": "address"
        }
      ],
      "stateMutability": "view",
      "type": "function"
    },
    {
      "inputs": [],
      "name": "s_totalSupply",
      "outputs": [
        {
          "internalType": "uint256",
          "name": "",
          "type": "uint256"
        }
      ],
      "stateMutability": "view",
      "type": "function"
    },
    {
      "inputs": [
        {
          "internalType": "address",
          "name": "",
          "type": "address"
        }
      ],
      "name": "s_userRewardPerTokenPaid",
      "outputs": [
        {
          "internalType": "uint256",
          "name": "",
          "type": "uint256"
        }
      ],
      "stateMutability": "view",
      "type": "function"
    },
    {
      "inputs": [
        {
          "internalType": "uint256",
          "name": "amount",
          "type": "uint256"
        }
      ],
      "name": "stake",
      "outputs": [],
      "stateMutability": "nonpayable",
      "type": "function"
    },
    {
      "inputs": [
        {
          "internalType": "uint256",
          "name": "amount",
          "type": "uint256"
        }
      ],
      "name": "withdrawl",
      "outputs": [],
      "stateMutability": "nonpayable",
      "type": "function"
    }
  ],
  "bytecode": "0x60806040523480156200001157600080fd5b506040516200112f3803806200112f8339818101604052810190620000379190620000d7565b816000806101000a81548173ffffffffffffffffffffffffffffffffffffffff021916908373ffffffffffffffffffffffffffffffffffffffff16021790555080600160006101000a81548173ffffffffffffffffffffffffffffffffffffffff021916908373ffffffffffffffffffffffffffffffffffffffff160217905550505062000171565b600081519050620000d18162000157565b92915050565b60008060408385031215620000f157620000f062000152565b5b60006200010185828601620000c0565b92505060206200011485828601620000c0565b9150509250929050565b60006200012b8262000132565b9050919050565b600073ffffffffffffffffffffffffffffffffffffffff82169050919050565b600080fd5b62000162816200011e565b81146200016e57600080fd5b50565b610fae80620001816000396000f3fe608060405234801561001057600080fd5b50600436106100e95760003560e01c8063ab32eb691161008c578063bea0815111610066578063bea0815114610228578063cd3daf9d14610258578063e4480dd814610276578063f245ace414610292576100e9565b8063ab32eb69146101d0578063adca9b7214610200578063b88a802f1461021e576100e9565b80636374cc00116100c85780636374cc001461015a5780636a74a0fc14610178578063931e26ac14610196578063a694fc3a146101b4576100e9565b80628cc262146100ee578063304ac91b1461011e5780635997bb371461013c575b600080fd5b61010860048036038101906101039190610bf3565b6102c2565b6040516101159190610d22565b60405180910390f35b6101266103e1565b6040516101339190610d22565b60405180910390f35b6101446103e7565b6040516101519190610d22565b60405180910390f35b6101626103ec565b60405161016f9190610d07565b60405180910390f35b610180610412565b60405161018d9190610d22565b60405180910390f35b61019e610418565b6040516101ab9190610d22565b60405180910390f35b6101ce60048036038101906101c99190610c4d565b61041e565b005b6101ea60048036038101906101e59190610bf3565b610695565b6040516101f79190610d22565b60405180910390f35b6102086106ad565b6040516102159190610d07565b60405180910390f35b6102266106d1565b005b610242600480360381019061023d9190610bf3565b6108ac565b60405161024f9190610d22565b60405180910390f35b6102606108c4565b60405161026d9190610d22565b60405180910390f35b610290600480360381019061028b9190610c4d565b610927565b005b6102ac60048036038101906102a79190610bf3565b610b9c565b6040516102b99190610d22565b60405180910390f35b600080600560008473ffffffffffffffffffffffffffffffffffffffff1673ffffffffffffffffffffffffffffffffffffffff1681526020019081526020016000205490506000600660008573ffffffffffffffffffffffffffffffffffffffff1673ffffffffffffffffffffffffffffffffffffffff16815260200190815260200160002054905060006103556108c4565b90506000600760008773ffffffffffffffffffffffffffffffffffffffff1673ffffffffffffffffffffffffffffffffffffffff168152602001908152602001600020549050600081670de0b6b3a764000085856103b39190610e1e565b876103be9190610dc4565b6103c89190610d93565b6103d29190610d3d565b90508095505050505050919050565b60035481565b606481565b600160009054906101000a900473ffffffffffffffffffffffffffffffffffffffff1681565b60025481565b60045481565b336104276108c4565b6003819055504260048190555061043d816102c2565b600760008373ffffffffffffffffffffffffffffffffffffffff1673ffffffffffffffffffffffffffffffffffffffff16815260200190815260200160002081905550600354600660008373ffffffffffffffffffffffffffffffffffffffff1673ffffffffffffffffffffffffffffffffffffffff16815260200190815260200160002081905550816000811415610502576040517ffc89637d00000000000000000000000000000000000000000000000000000000815260040160405180910390fd5b82600560003373ffffffffffffffffffffffffffffffffffffffff1673ffffffffffffffffffffffffffffffffffffffff1681526020019081526020016000205461054d9190610d3d565b600560003373ffffffffffffffffffffffffffffffffffffffff1673ffffffffffffffffffffffffffffffffffffffff168152602001908152602001600020819055508260025461059e9190610d3d565b60028190555060008060009054906101000a900473ffffffffffffffffffffffffffffffffffffffff1673ffffffffffffffffffffffffffffffffffffffff166323b872dd3330876040518463ffffffff1660e01b815260040161060493929190610ca7565b602060405180830381600087803b15801561061e57600080fd5b505af1158015610632573d6000803e3d6000fd5b505050506040513d601f19601f820116820180604052508101906106569190610c20565b90508061068f576040517feb4c684700000000000000000000000000000000000000000000000000000000815260040160405180910390fd5b50505050565b60056020528060005260406000206000915090505481565b60008054906101000a900473ffffffffffffffffffffffffffffffffffffffff1681565b336106da6108c4565b600381905550426004819055506106f0816102c2565b600760008373ffffffffffffffffffffffffffffffffffffffff1673ffffffffffffffffffffffffffffffffffffffff16815260200190815260200160002081905550600354600660008373ffffffffffffffffffffffffffffffffffffffff1673ffffffffffffffffffffffffffffffffffffffff168152602001908152602001600020819055506000600760003373ffffffffffffffffffffffffffffffffffffffff1673ffffffffffffffffffffffffffffffffffffffff1681526020019081526020016000205490506000600160009054906101000a900473ffffffffffffffffffffffffffffffffffffffff1673ffffffffffffffffffffffffffffffffffffffff1663a9059cbb33846040518363ffffffff1660e01b815260040161081c929190610cde565b602060405180830381600087803b15801561083657600080fd5b505af115801561084a573d6000803e3d6000fd5b505050506040513d601f19601f8201168201806040525081019061086e9190610c20565b9050806108a7576040517feb4c684700000000000000000000000000000000000000000000000000000000815260040160405180910390fd5b505050565b60076020528060005260406000206000915090505481565b60008060025414156108da576003549050610924565b600254670de0b6b3a76400006064600454426108f69190610e1e565b6109009190610dc4565b61090a9190610dc4565b6109149190610d93565b6003546109219190610d3d565b90505b90565b336109306108c4565b60038190555042600481905550610946816102c2565b600760008373ffffffffffffffffffffffffffffffffffffffff1673ffffffffffffffffffffffffffffffffffffffff16815260200190815260200160002081905550600354600660008373ffffffffffffffffffffffffffffffffffffffff1673ffffffffffffffffffffffffffffffffffffffff16815260200190815260200160002081905550816000811415610a0b576040517ffc89637d00000000000000000000000000000000000000000000000000000000815260040160405180910390fd5b82600560003373ffffffffffffffffffffffffffffffffffffffff1673ffffffffffffffffffffffffffffffffffffffff16815260200190815260200160002054610a569190610e1e565b600560003373ffffffffffffffffffffffffffffffffffffffff1673ffffffffffffffffffffffffffffffffffffffff1681526020019081526020016000208190555082600254610aa79190610e1e565b60028190555060008060009054906101000a900473ffffffffffffffffffffffffffffffffffffffff1673ffffffffffffffffffffffffffffffffffffffff1663a9059cbb33866040518363ffffffff1660e01b8152600401610b0b929190610cde565b602060405180830381600087803b158015610b2557600080fd5b505af1158015610b39573d6000803e3d6000fd5b505050506040513d601f19601f82011682018060405250810190610b5d9190610c20565b905080610b96576040517f0f7b025800000000000000000000000000000000000000000000000000000000815260040160405180910390fd5b50505050565b60066020528060005260406000206000915090505481565b600081359050610bc381610f33565b92915050565b600081519050610bd881610f4a565b92915050565b600081359050610bed81610f61565b92915050565b600060208284031215610c0957610c08610f2e565b5b6000610c1784828501610bb4565b91505092915050565b600060208284031215610c3657610c35610f2e565b5b6000610c4484828501610bc9565b91505092915050565b600060208284031215610c6357610c62610f2e565b5b6000610c7184828501610bde565b91505092915050565b610c8381610e52565b82525050565b610c9281610e9a565b82525050565b610ca181610e90565b82525050565b6000606082019050610cbc6000830186610c7a565b610cc96020830185610c7a565b610cd66040830184610c98565b949350505050565b6000604082019050610cf36000830185610c7a565b610d006020830184610c98565b9392505050565b6000602082019050610d1c6000830184610c89565b92915050565b6000602082019050610d376000830184610c98565b92915050565b6000610d4882610e90565b9150610d5383610e90565b9250827fffffffffffffffffffffffffffffffffffffffffffffffffffffffffffffffff03821115610d8857610d87610ed0565b5b828201905092915050565b6000610d9e82610e90565b9150610da983610e90565b925082610db957610db8610eff565b5b828204905092915050565b6000610dcf82610e90565b9150610dda83610e90565b9250817fffffffffffffffffffffffffffffffffffffffffffffffffffffffffffffffff0483118215151615610e1357610e12610ed0565b5b828202905092915050565b6000610e2982610e90565b9150610e3483610e90565b925082821015610e4757610e46610ed0565b5b828203905092915050565b6000610e5d82610e70565b9050919050565b60008115159050919050565b600073ffffffffffffffffffffffffffffffffffffffff82169050919050565b6000819050919050565b6000610ea582610eac565b9050919050565b6000610eb782610ebe565b9050919050565b6000610ec982610e70565b9050919050565b7f4e487b7100000000000000000000000000000000000000000000000000000000600052601160045260246000fd5b7f4e487b7100000000000000000000000000000000000000000000000000000000600052601260045260246000fd5b600080fd5b610f3c81610e52565b8114610f4757600080fd5b50565b610f5381610e64565b8114610f5e57600080fd5b50565b610f6a81610e90565b8114610f7557600080fd5b5056fea2646970667358221220a70fb7da6f6f157f5cef8733b76878cbbb0554492e34afabbff4742688451b1564736f6c63430008070033",
  "linkReferences": {},
  "deployedLinkReferences": {}
}